{
  "address": "0x91e58e7231AE8590166b35aC601B02729A25477B",
  "abi": [
    {
      "inputs": [
        {
          "internalType": "address",
          "name": "_owner",
          "type": "address"
        }
      ],
      "stateMutability": "nonpayable",
      "type": "constructor"
    },
    {
      "anonymous": false,
      "inputs": [
        {
          "indexed": false,
          "internalType": "uint256",
          "name": "total",
          "type": "uint256"
        },
        {
          "indexed": false,
          "internalType": "address",
          "name": "tokenAddress",
          "type": "address"
        }
      ],
      "name": "Multisended",
      "type": "event"
    },
    {
      "inputs": [],
      "name": "arrayLimit",
      "outputs": [
        {
          "internalType": "uint16",
          "name": "",
          "type": "uint16"
        }
      ],
      "stateMutability": "view",
      "type": "function"
    },
    {
      "inputs": [
        {
          "internalType": "uint16",
          "name": "_newLimit",
          "type": "uint16"
        }
      ],
      "name": "changeTreshold",
      "outputs": [],
      "stateMutability": "nonpayable",
      "type": "function"
    },
    {
      "inputs": [
        {
          "internalType": "address[]",
          "name": "_contributors",
          "type": "address[]"
        },
        {
          "internalType": "uint256[]",
          "name": "_balances",
          "type": "uint256[]"
        }
      ],
      "name": "multisendEther",
      "outputs": [],
      "stateMutability": "payable",
      "type": "function"
    },
    {
      "inputs": [
        {
          "internalType": "address",
          "name": "token",
          "type": "address"
        },
        {
          "internalType": "address[]",
          "name": "_contributors",
          "type": "address[]"
        },
        {
          "internalType": "uint256[]",
          "name": "_balances",
          "type": "uint256[]"
        }
      ],
      "name": "multisendToken",
      "outputs": [],
      "stateMutability": "nonpayable",
      "type": "function"
    },
    {
      "inputs": [],
      "name": "owner",
      "outputs": [
        {
          "internalType": "address",
          "name": "",
          "type": "address"
        }
      ],
      "stateMutability": "view",
      "type": "function"
    },
    {
      "inputs": [
        {
          "internalType": "address",
          "name": "",
          "type": "address"
        }
      ],
      "name": "txCount",
      "outputs": [
        {
          "internalType": "uint256",
          "name": "",
          "type": "uint256"
        }
      ],
      "stateMutability": "view",
      "type": "function"
    },
    {
      "stateMutability": "payable",
      "type": "receive"
    }
  ],
  "transactionHash": "0xc185bdea4472831f803d634e204086c4b0d208593d47c8059e2257882a8bfe82",
  "args": [
    "0x55b9CB0bCf56057010b9c471e7D42d60e1111EEa"
  ],
  "numDeployments": 1,
  "solcInputHash": "7d25321efb73f37aef794390b949e947",
  "bytecode": "0x60806040526001805461ffff60a01b1916604b60a11b17905534801561002457600080fd5b50604051610a67380380610a6783398101604081905261004391610068565b600180546001600160a01b0319166001600160a01b0392909216919091179055610098565b60006020828403121561007a57600080fd5b81516001600160a01b038116811461009157600080fd5b9392505050565b6109c0806100a76000396000f3fe6080604052600436106100595760003560e01c80630b66f3f5146100655780630ec173d0146100875780638da5cb5b146100a7578063ab883d28146100e4578063b4ae641c146100f7578063c1258f691461012c57600080fd5b3661006057005b600080fd5b34801561007157600080fd5b50610085610080366004610766565b610167565b005b34801561009357600080fd5b506100856100a23660046107da565b6103da565b3480156100b357600080fd5b506001546100c7906001600160a01b031681565b6040516001600160a01b0390911681526020015b60405180910390f35b6100856100f2366004610805565b610461565b34801561010357600080fd5b5060015461011990600160a01b900461ffff1681565b60405161ffff90911681526020016100db565b34801561013857600080fd5b50610159610147366004610869565b60006020819052908152604090205481565b6040519081526020016100db565b6001548251600091600160a01b900461ffff1610156101a15760405162461bcd60e51b815260040161019890610884565b60405180910390fd5b604051636eb1769f60e11b8152336004820152306024820152849060009081906001600160a01b0384169063dd62ed3e90604401602060405180830381865afa1580156101f2573d6000803e3d6000fd5b505050506040513d601f19601f8201168201806040525081019061021691906108d2565b116102635760405162461bcd60e51b815260206004820152601d60248201527f496e73756666696369656e7420746f6b656e20616c6c6f77616e63652e0000006044820152606401610198565b84518160ff16101561037157816001600160a01b03166323b872dd33878460ff1681518110610294576102946108eb565b6020026020010151878560ff16815181106102b1576102b16108eb565b60209081029190910101516040516001600160e01b031960e086901b1681526001600160a01b03938416600482015292909116602483015260448201526064016020604051808303816000875af1158015610310573d6000803e3d6000fd5b505050506040513d601f19601f820116820180604052508101906103349190610901565b50838160ff168151811061034a5761034a6108eb565b60200260200101518361035d9190610939565b92508061036981610952565b915050610263565b33600090815260208190526040812080549161038c83610971565b9091555050604080518481526001600160a01b03881660208201527f04afd2ce457d973046bd54f5d7d36368546da08b88be1bca8ae50e32b451da17910160405180910390a1505050505050565b6001546001600160a01b0316331461043f5760405162461bcd60e51b815260206004820152602260248201527f4f6e6c79206f776e65722063616e2063616c6c20746869732066756e6374696f604482015261371760f11b6064820152608401610198565b6001805461ffff909216600160a01b0261ffff60a01b19909216919091179055565b6001548251600091600160a01b900461ffff1610156104925760405162461bcd60e51b815260040161019890610884565b60005b83518160ff1610156105b3576000848260ff16815181106104b8576104b86108eb565b60200260200101516001600160a01b0316848360ff16815181106104de576104de6108eb565b602002602001015160405160006040518083038185875af1925050503d8060008114610526576040519150601f19603f3d011682016040523d82523d6000602084013e61052b565b606091505b50509050806105755760405162461bcd60e51b815260206004820152601660248201527522ba3432b9103a3930b739b332b9103330b4b632b21760511b6044820152606401610198565b838260ff168151811061058a5761058a6108eb565b60200260200101518361059d9190610939565b92505080806105ab90610952565b915050610495565b3360009081526020819052604081208054916105ce83610971565b909155505060408051838152600060208201527f04afd2ce457d973046bd54f5d7d36368546da08b88be1bca8ae50e32b451da17910160405180910390a150505050565b80356001600160a01b038116811461062957600080fd5b919050565b634e487b7160e01b600052604160045260246000fd5b604051601f8201601f1916810167ffffffffffffffff8111828210171561066d5761066d61062e565b604052919050565b600067ffffffffffffffff82111561068f5761068f61062e565b5060051b60200190565b600082601f8301126106aa57600080fd5b813560206106bf6106ba83610675565b610644565b82815260059290921b840181019181810190868411156106de57600080fd5b8286015b84811015610700576106f381610612565b83529183019183016106e2565b509695505050505050565b600082601f83011261071c57600080fd5b8135602061072c6106ba83610675565b82815260059290921b8401810191818101908684111561074b57600080fd5b8286015b84811015610700578035835291830191830161074f565b60008060006060848603121561077b57600080fd5b61078484610612565b9250602084013567ffffffffffffffff808211156107a157600080fd5b6107ad87838801610699565b935060408601359150808211156107c357600080fd5b506107d08682870161070b565b9150509250925092565b6000602082840312156107ec57600080fd5b813561ffff811681146107fe57600080fd5b9392505050565b6000806040838503121561081857600080fd5b823567ffffffffffffffff8082111561083057600080fd5b61083c86838701610699565b9350602085013591508082111561085257600080fd5b5061085f8582860161070b565b9150509250929050565b60006020828403121561087b57600080fd5b6107fe82610612565b6020808252602e908201527f546f6f206d616e7920636f6e7472696275746f727320696e20612073696e676c60408201526d32903a3930b739b0b1ba34b7b71760911b606082015260800190565b6000602082840312156108e457600080fd5b5051919050565b634e487b7160e01b600052603260045260246000fd5b60006020828403121561091357600080fd5b815180151581146107fe57600080fd5b634e487b7160e01b600052601160045260246000fd5b8082018082111561094c5761094c610923565b92915050565b600060ff821660ff810361096857610968610923565b60010192915050565b60006001820161098357610983610923565b506001019056fea2646970667358221220d00bef3cc530170dba3aeac3fbf166c4566667cb79158935b322ede95e1523c264736f6c63430008140033",
  "devdoc": {
    "kind": "dev",
    "methods": {},
    "version": 1
  },
  "userdoc": {
    "kind": "user",
    "methods": {},
    "version": 1
  },
  "storageLayout": {
    "storage": [
      {
        "astId": 75,
        "contract": "contracts/Splitter.sol:Splitter",
        "label": "txCount",
        "offset": 0,
        "slot": "0",
        "type": "t_mapping(t_address,t_uint256)"
      },
      {
        "astId": 77,
        "contract": "contracts/Splitter.sol:Splitter",
        "label": "owner",
        "offset": 0,
        "slot": "1",
        "type": "t_address"
      },
      {
        "astId": 80,
        "contract": "contracts/Splitter.sol:Splitter",
        "label": "arrayLimit",
        "offset": 20,
        "slot": "1",
        "type": "t_uint16"
      }
    ],
    "types": {
      "t_address": {
        "encoding": "inplace",
        "label": "address",
        "numberOfBytes": "20"
      },
      "t_mapping(t_address,t_uint256)": {
        "encoding": "mapping",
        "key": "t_address",
        "label": "mapping(address => uint256)",
        "numberOfBytes": "32",
        "value": "t_uint256"
      },
      "t_uint16": {
        "encoding": "inplace",
        "label": "uint16",
        "numberOfBytes": "2"
      },
      "t_uint256": {
        "encoding": "inplace",
        "label": "uint256",
        "numberOfBytes": "32"
      }
    }
  }
}